S00E00004D43543338312E7372656396
S11300000C9434000C9485010C9416010C9451004A
S11300100C9451000C9451000C9451000C94510018
S11300200C9451000C9451000C9451000C94510008
S11300300C9451000C9451000C9451000C945100F8
S11300400C9451000C9451000C9451000C945100E8
S11300500C9451000C9451000C9451000C945100D8
S11300600C9451000C94510011241FBECFEFD8E022
S1130070DEBFCDBF11E0A0E0B1E0ECEEF3E002C0E2
S113008005900D92A430B107D9F721E0A4E0B1E0C6
S113009001C01D92AA30B207E1F70E9475000C94CA
S11300A0F4010C94000080EF8AB98BB18C608BB999
S11300B08DB383608DBB84E084B9249AE0E8F0E0DA
S11300C08081826A8083E1E8F0E080818B618083B3
S11300D087E893E1909387008093860088E092E01C
S11300E090938B0080938A0008950E9453002FEF11
S11300F083E294EF215080409040E1F700C000007B
S11301007894FFCFBC011816190674F540E050E04E
S1130110E0910801F0910901E050FF4F90819BB9F3
S11301202FEF89EF90E0215080409040E1F700C02C
S1130130000020910801309109012F5F3F4F309357
S1130140090120930801209108013091090124300C
S1130150310521F410920901109208014F5F5F4F9D
S113016064177507A9F6089599236CF520E030E02B
S113017043E050E0E0910801F0910901E050FF4FA5
S113018080818BB9EFEF89EF90E0E150804090409F
S1130190E1F700C0000080910801909109010197E6
S11301A090930901809308018091080190910901BD
S11301B0019621F45093090140930801215031091B
S11301C062177307B9F6089580918A0090918B00A5
S11301D08C3321E0920721F088309240A1F00895F9
S11301E02CEC30E0EAE8F0E0808191810196918383
S11301F080838FE19EE40197F1F700C00000215055
S1130200310991F708952CEC30E0EAE8F0E08081C0
S113021091810197918380838FE19EE40197F1F7A7
S113022000C000002150310991F708951F920F92E8
S11302300FB60F9211242F933F934F935F936F93B5
S11302407F938F939F93AF93BF93EF93FF9380918B
S11302500401909105010196909305018093040196
S1130260809104019091050180319742E9F58FEF67
S113027091EE24E0815090402040E1F700C000005E
S113028082E390E00E9482008FEF91EE24E081509F
S113029090402040E1F700C000000E94E4008FEF8E
S11302A091EE24E0815090402040E1F700C000002E
S11302B08EEC9FEF0E9482008FEF91EE24E081503C
S11302C090402040E1F700C000000E94E4008FEF5E
S11302D093E224EF815090402040E1F700C00000F9
S11302E01092050110920401FF91EF91BF91AF911B
S11302F09F918F917F916F915F914F913F912F913A
S11303000F900FBE0F901F9018951F920F920FB66B
S11303100F9211242F933F934F935F936F937F9387
S11303208F939F93AF93BF93EF93FF9380910601B5
S113033090910701019690930701809306018091A3
S113034006019091070180319742E9F58FEF91EE14
S113035024E0815090402040E1F700C000008EEC82
S11303609FEF0E9482008FEF91EE24E08150904035
S11303702040E1F700C000000E94E4008FEF91EEFE
S113038024E0815090402040E1F700C0000082E367
S113039090E00E9482008FEF91EE24E08150904023
S11303A02040E1F700C000000E94E4008FEF93E2D8
S11303B024EF815090402040E1F700C000001092EB
S11303C0070110920601FF91EF91BF91AF919F91A8
S11303D08F917F916F915F914F913F912F910F90EA
S10F03E00FBE0F901F901895F894FFCFEB
S10703EC5060A09029
S9030000FC
